{"abi":[{"type":"constructor","inputs":[],"stateMutability":"nonpayable"},{"type":"function","name":"affiliateCommissions","inputs":[{"name":"","type":"address","internalType":"address"}],"outputs":[{"name":"totalClaimed","type":"uint256","internalType":"uint256"},{"name":"lastClaimDay","type":"uint256","internalType":"uint256"}],"stateMutability":"view"},{"type":"function","name":"bot","inputs":[],"outputs":[{"name":"","type":"address","internalType":"address"}],"stateMutability":"view"},{"type":"function","name":"dailyDeposits","inputs":[{"name":"","type":"uint256","internalType":"uint256"}],"outputs":[{"name":"amountBot","type":"uint256","internalType":"uint256"},{"name":"amountTax","type":"uint256","internalType":"uint256"},{"name":"totalStaked","type":"uint256","internalType":"uint256"}],"stateMutability":"view"},{"type":"function","name":"ethTax","inputs":[],"outputs":[{"name":"","type":"uint256","internalType":"uint256"}],"stateMutability":"view"},{"type":"function","name":"getCurrentDay","inputs":[],"outputs":[{"name":"","type":"uint256","internalType":"uint256"}],"stateMutability":"view"},{"type":"function","name":"getMessageHash","inputs":[{"name":"beneficiary","type":"address","internalType":"address"},{"name":"amount","type":"uint256","internalType":"uint256"},{"name":"inETH","type":"bool","internalType":"bool"},{"name":"message","type":"string","internalType":"string"},{"name":"nonce","type":"uint256","internalType":"uint256"}],"outputs":[{"name":"","type":"bytes32","internalType":"bytes32"}],"stateMutability":"view"},{"type":"function","name":"isValidSignature","inputs":[{"name":"beneficiary","type":"address","internalType":"address"},{"name":"amount","type":"uint256","internalType":"uint256"},{"name":"inETH","type":"bool","internalType":"bool"},{"name":"message","type":"string","internalType":"string"},{"name":"_v","type":"uint8","internalType":"uint8"},{"name":"_r","type":"bytes32","internalType":"bytes32"},{"name":"_s","type":"bytes32","internalType":"bytes32"}],"outputs":[{"name":"","type":"bool","internalType":"bool"}],"stateMutability":"view"},{"type":"function","name":"jokToken","inputs":[],"outputs":[{"name":"","type":"address","internalType":"contract IERC20"}],"stateMutability":"view"},{"type":"function","name":"lastOwnerDepositDay","inputs":[],"outputs":[{"name":"","type":"uint256","internalType":"uint256"}],"stateMutability":"view"},{"type":"function","name":"maxPercentage","inputs":[],"outputs":[{"name":"","type":"uint256","internalType":"uint256"}],"stateMutability":"view"},{"type":"function","name":"nonce","inputs":[{"name":"","type":"address","internalType":"address"}],"outputs":[{"name":"","type":"uint256","internalType":"uint256"}],"stateMutability":"view"},{"type":"function","name":"oldOwner","inputs":[],"outputs":[{"name":"","type":"address","internalType":"address"}],"stateMutability":"view"},{"type":"function","name":"owner","inputs":[],"outputs":[{"name":"","type":"address","internalType":"address"}],"stateMutability":"view"},{"type":"function","name":"renounceOwnership","inputs":[],"outputs":[],"stateMutability":"nonpayable"},{"type":"function","name":"setEthTax","inputs":[{"name":"_ethTax","type":"uint256","internalType":"uint256"}],"outputs":[],"stateMutability":"nonpayable"},{"type":"function","name":"setJokToken","inputs":[{"name":"_jokToken","type":"address","internalType":"address"}],"outputs":[],"stateMutability":"nonpayable"},{"type":"function","name":"setMEVBot","inputs":[{"name":"_bot","type":"address","internalType":"address"}],"outputs":[],"stateMutability":"nonpayable"},{"type":"function","name":"setMaxPercentage","inputs":[{"name":"_maxPercentage","type":"uint256","internalType":"uint256"}],"outputs":[],"stateMutability":"nonpayable"},{"type":"function","name":"setStakingSigner","inputs":[{"name":"_stakingSigner","type":"address","internalType":"address"}],"outputs":[],"stateMutability":"nonpayable"},{"type":"function","name":"setValidLockPeriod","inputs":[{"name":"lockPeriod","type":"uint256","internalType":"uint256"},{"name":"isValid","type":"bool","internalType":"bool"},{"name":"bonus","type":"uint256","internalType":"uint256"}],"outputs":[],"stateMutability":"nonpayable"},{"type":"function","name":"stake","inputs":[{"name":"amount","type":"uint256","internalType":"uint256"},{"name":"lockPeriod","type":"uint256","internalType":"uint256"}],"outputs":[],"stateMutability":"nonpayable"},{"type":"function","name":"stakers","inputs":[{"name":"","type":"address","internalType":"address"}],"outputs":[{"name":"rewardsClaimed","type":"uint256","internalType":"uint256"},{"name":"lastClaimDay","type":"uint256","internalType":"uint256"}],"stateMutability":"view"},{"type":"function","name":"stakes","inputs":[{"name":"","type":"address","internalType":"address"},{"name":"","type":"uint256","internalType":"uint256"}],"outputs":[{"name":"unstaked","type":"bool","internalType":"bool"},{"name":"amountStaked","type":"uint256","internalType":"uint256"},{"name":"lockPeriod","type":"uint256","internalType":"uint256"},{"name":"stakedDay","type":"uint256","internalType":"uint256"},{"name":"unstakedDay","type":"uint256","internalType":"uint256"}],"stateMutability":"view"},{"type":"function","name":"stakingSigner","inputs":[],"outputs":[{"name":"","type":"address","internalType":"address"}],"stateMutability":"view"},{"type":"function","name":"totalDeposits","inputs":[],"outputs":[{"name":"","type":"uint256","internalType":"uint256"}],"stateMutability":"view"},{"type":"function","name":"totalStaked","inputs":[],"outputs":[{"name":"","type":"uint256","internalType":"uint256"}],"stateMutability":"view"},{"type":"function","name":"transferOwnership","inputs":[{"name":"newOwner","type":"address","internalType":"address"}],"outputs":[],"stateMutability":"nonpayable"},{"type":"function","name":"unstake","inputs":[{"name":"stakeIndex","type":"uint256","internalType":"uint256"}],"outputs":[],"stateMutability":"nonpayable"},{"type":"function","name":"updateTotalDeposits","inputs":[],"outputs":[],"stateMutability":"payable"},{"type":"function","name":"validLockPeriods","inputs":[{"name":"","type":"uint256","internalType":"uint256"}],"outputs":[{"name":"isValid","type":"bool","internalType":"bool"},{"name":"bonus","type":"uint256","internalType":"uint256"}],"stateMutability":"view"},{"type":"function","name":"withdraw","inputs":[{"name":"earnings","type":"uint256","internalType":"uint256"},{"name":"affiliateEarnings","type":"uint256","internalType":"uint256"},{"name":"inETH","type":"bool","internalType":"bool"},{"name":"message","type":"string","internalType":"string"},{"name":"_v","type":"uint8","internalType":"uint8"},{"name":"_r","type":"bytes32","internalType":"bytes32"},{"name":"_s","type":"bytes32","internalType":"bytes32"}],"outputs":[],"stateMutability":"nonpayable"},{"type":"event","name":"Deposit","inputs":[{"name":"day","type":"uint256","indexed":false,"internalType":"uint256"},{"name":"amount","type":"uint256","indexed":false,"internalType":"uint256"},{"name":"totalStaked","type":"uint256","indexed":false,"internalType":"uint256"}],"anonymous":false},{"type":"event","name":"NewStake","inputs":[{"name":"staker","type":"address","indexed":true,"internalType":"address"},{"name":"amount","type":"uint256","indexed":false,"internalType":"uint256"},{"name":"timestamp","type":"uint256","indexed":false,"internalType":"uint256"},{"name":"lockPeriod","type":"uint256","indexed":true,"internalType":"uint256"},{"name":"stakeIndex","type":"uint256","indexed":false,"internalType":"uint256"}],"anonymous":false},{"type":"event","name":"OwnershipTransferred","inputs":[{"name":"previousOwner","type":"address","indexed":true,"internalType":"address"},{"name":"newOwner","type":"address","indexed":true,"internalType":"address"}],"anonymous":false},{"type":"event","name":"Unstake","inputs":[{"name":"staker","type":"address","indexed":true,"internalType":"address"},{"name":"amount","type":"uint256","indexed":false,"internalType":"uint256"},{"name":"timestamp","type":"uint256","indexed":false,"internalType":"uint256"},{"name":"lockPeriod","type":"uint256","indexed":true,"internalType":"uint256"},{"name":"stakeIndex","type":"uint256","indexed":false,"internalType":"uint256"}],"anonymous":false},{"type":"event","name":"Withdraw","inputs":[{"name":"staker","type":"address","indexed":true,"internalType":"address"},{"name":"earnings","type":"uint256","indexed":false,"internalType":"uint256"},{"name":"inETH","type":"bool","indexed":false,"internalType":"bool"}],"anonymous":false}],"bytecode":{"object":"0x6080604052600c80546001600160a01b0319167380e4929c869102140e69550bbecc20bed61b080c179055600a600f5534801561003b57600080fd5b50610045336101ca565b600b80546001600160a01b031916737a33b6c083778e9e8019919561e0da0cf9e46b751790556005600e81905560408051808201825260018082526020808301948552601e6000908152600880835293517f8ff154b69b3b40c11effaf182586e40eb0e8eab5c2d51945cbe34b1b0bcf6e28805491151560ff1992831617905595517f8ff154b69b3b40c11effaf182586e40eb0e8eab5c2d51945cbe34b1b0bcf6e295584518086018652838152600a818401908152603c835285845290517f5ae6450a172f3cea862ab404e3d8e8e6d71d199a35cad801487c36c77ce5bacb8054911515918916919091179055517f5ae6450a172f3cea862ab404e3d8e8e6d71d199a35cad801487c36c77ce5bacc558451808601909552918452600f848201908152605a9092529190915290517fa3046de8475047f40cb93bcd5ee006bbc09114e5f6860de753f6f8734428030580549115159190931617909155517fa3046de8475047f40cb93bcd5ee006bbc09114e5f6860de753f6f873442803065561022b565b60008054600180546001600160a01b03199081166001600160a01b0380851691821790935591851692168217835542600255604051909283917f8be0079c531659141344cd1fd0a4f28419497f9722a3daafe3b4186f6b6457e09190a35050565b6117bd8061023a6000396000f3fe6080604052600436106101d85760003560e01c80637841c5df1161010257806394ab538211610095578063cdacf8cb11610064578063cdacf8cb146105b3578063ebb2567e146105e3578063f2fde38b14610634578063f487404f1461065457600080fd5b806394ab53821461051f578063b0528f921461053f578063b0985aa914610573578063ca0bb0711461059357600080fd5b80638320b124116100d15780638320b124146104905780638da5cb5b146104985780638e682105146104b65780639168ae72146104d657600080fd5b80637841c5df146104245780637b0472f0146104445780637d88209714610464578063817b1cd21461047a57600080fd5b80633606f28e1161017a57806366474eed1161014957806366474eed146103a25780636a376065146103c257806370ae92d2146103e2578063715018a61461040f57600080fd5b80633606f28e146103035780633e6968b6146103235780634a7e255f14610338578063584b62a11461035857600080fd5b80632a1e8dfa116101b65780632a1e8dfa1461025e5780632e17de781461027457806332c2ec271461029657806335b6003b146102ed57600080fd5b80630d03fab5146101dd57806310814c37146102065780631f418dde1461023e575b600080fd5b3480156101e957600080fd5b506101f3600a5481565b6040519081526020015b60405180910390f35b34801561021257600080fd5b50600d54610226906001600160a01b031681565b6040516001600160a01b0390911681526020016101fd565b34801561024a57600080fd5b50600b54610226906001600160a01b031681565b34801561026a57600080fd5b506101f3600e5481565b34801561028057600080fd5b5061029461028f366004611333565b610672565b005b3480156102a257600080fd5b506102d26102b1366004611333565b60036020526000908152604090208054600182015460029092015490919083565b604080519384526020840192909252908201526060016101fd565b3480156102f957600080fd5b506101f3600f5481565b34801561030f57600080fd5b5061029461031e366004611368565b610956565b34801561032f57600080fd5b506101f36109a2565b34801561034457600080fd5b50610294610353366004611368565b6109b6565b34801561036457600080fd5b5061037861037336600461138a565b610a02565b6040805195151586526020860194909452928401919091526060830152608082015260a0016101fd565b3480156103ae57600080fd5b50600c54610226906001600160a01b031681565b3480156103ce57600080fd5b506102946103dd366004611368565b610a54565b3480156103ee57600080fd5b506101f36103fd366004611368565b60106020526000908152604090205481565b34801561041b57600080fd5b50610294610aa0565b34801561043057600080fd5b5061029461043f366004611333565b610ad6565b34801561045057600080fd5b5061029461045f3660046113b4565b610b56565b34801561047057600080fd5b506101f360095481565b34801561048657600080fd5b506101f360055481565b610294610d28565b3480156104a457600080fd5b506000546001600160a01b0316610226565b3480156104c257600080fd5b506102946104d1366004611498565b610e82565b3480156104e257600080fd5b5061050a6104f1366004611368565b6006602052600090815260409020805460019091015482565b604080519283526020830191909152016101fd565b34801561052b57600080fd5b5061029461053a366004611333565b610f25565b34801561054b57600080fd5b5061050a61055a366004611368565b6007602052600090815260409020805460019091015482565b34801561057f57600080fd5b5061029461058e36600461151f565b610fa5565b34801561059f57600080fd5b506101f36105ae366004611557565b611050565b3480156105bf57600080fd5b506105d36105ce3660046115c9565b61108e565b60405190151581526020016101fd565b3480156105ef57600080fd5b5061061d6105fe366004611333565b6008602052600090815260409020805460019091015460ff9091169082565b6040805192151583526020830191909152016101fd565b34801561064057600080fd5b5061029461064f366004611368565b611192565b34801561066057600080fd5b506001546001600160a01b0316610226565b3360009081526004602052604090205481106106cc5760405162461bcd60e51b8152602060048201526014602482015273496e76616c6964207374616b6520696e6465782160601b60448201526064015b60405180910390fd5b3360009081526004602052604081208054839081106106ed576106ed611604565b600091825260208083206040805160a0810182526005909402909101805460ff16151584526001810154928401929092526002820154908301526003810154606083015260040154608082015291506107446109a2565b90508160400151826060015161075a9190611630565b81116107a85760405162461bcd60e51b815260206004820152601e60248201527f4c6f636b20706572696f6420686173206e6f742066696e616c697a656421000060448201526064016106c3565b336000908152600460205260409020805460019190859081106107cd576107cd611604565b60009182526020808320600592909202909101805460ff19169315159390931790925533815260049091526040902080548291908590811061081157610811611604565b90600052602060002090600502016004018190555081602001516005600082825461083c9190611649565b9091555050600b54602083015160405163a9059cbb60e01b815233600482015260248101919091526001600160a01b039091169063a9059cbb906044016020604051808303816000875af1158015610898573d6000803e3d6000fd5b505050506040513d601f19601f820116820180604052508101906108bc919061165c565b6109015760405162461bcd60e51b8152602060048201526016602482015275546f6b656e207472616e73666572206661696c65642160501b60448201526064016106c3565b604080830151602080850151835190815242918101919091529182018590529033907f05b744e3e9358bc00ba3cc0c6606a4d6536134dba00b2d2ee4b5de169acd6427906060015b60405180910390a3505050565b6000546001600160a01b031633146109805760405162461bcd60e51b81526004016106c390611679565b600c80546001600160a01b0319166001600160a01b0392909216919091179055565b60006109b162015180426116ae565b905090565b6000546001600160a01b031633146109e05760405162461bcd60e51b81526004016106c390611679565b600b80546001600160a01b0319166001600160a01b0392909216919091179055565b60046020528160005260406000208181548110610a1e57600080fd5b60009182526020909120600590910201805460018201546002830154600384015460049094015460ff9093169550909350919085565b6000546001600160a01b03163314610a7e5760405162461bcd60e51b81526004016106c390611679565b600d80546001600160a01b0319166001600160a01b0392909216919091179055565b6000546001600160a01b03163314610aca5760405162461bcd60e51b81526004016106c390611679565b610ad4600061122d565b565b6000546001600160a01b03163314610b005760405162461bcd60e51b81526004016106c390611679565b6064811115610b515760405162461bcd60e51b815260206004820152601e60248201527f4554482074617820726174652063616e6e6f742065786365656420313030000060448201526064016106c3565b600e55565b60008181526008602052604090205460ff16610bab5760405162461bcd60e51b8152602060048201526014602482015273496e76616c6964206c6f636b20706572696f642160601b60448201526064016106c3565b6000610bb56109a2565b336000908152600460208181526040808420815160a0810183528581528084018a81529281018981526060820188815260808301888152845460018082018755958a5296892093516005978802909401805460ff191694151594909417845594519383019390935551600282015590516003820155905192019190915580549293508592909190610c47908490611630565b9091555050600b546040516323b872dd60e01b8152336004820152306024820152604481018590526001600160a01b03909116906323b872dd906064016020604051808303816000875af1158015610ca3573d6000803e3d6000fd5b505050506040513d601f19601f82011682018060405250810190610cc7919061165c565b50336000818152600460205260409020548391907f3cd01c2058c2b0d3a8d3e58ece55745b3f6e47ecf7b462f1a057fce69c4c86859086904290610d0d90600190611649565b60408051938452602084019290925290820152606001610949565b6000546001600160a01b0316331480610d4b5750600d546001600160a01b031633145b610d8a5760405162461bcd60e51b815260206004820152601060248201526f496e76616c696420416464726573732160801b60448201526064016106c3565b6000610d946109a2565b90503460096000828254610da89190611630565b9091555050600a8190556000546001600160a01b03163303610e045760008181526003602052604081206001018054349290610de5908490611630565b9091555050600554600082815260036020526040902060020155610e3d565b60008181526003602052604081208054349290610e22908490611630565b90915550506005546000828152600360205260409020600201555b6005546040805183815234602082015280820192909252517f33da4f9b82b3e18a281ca2cabbe2f076925692abb593b7ea3f850009e8ec97709181900360600190a150565b6000610e8e8789611630565b9050610ec2604051806040016040528060118152602001703bb4ba34323930bb90333ab731ba34b7b760791b81525061128e565b610ecb816112d1565b610eda3382888888888861108e565b610f1b5760405162461bcd60e51b8152602060048201526012602482015271496e76616c6964207369676e61747572652160701b60448201526064016106c3565b5050505050505050565b6000546001600160a01b03163314610f4f5760405162461bcd60e51b81526004016106c390611679565b6064811115610fa05760405162461bcd60e51b815260206004820181905260248201527f4d61782070657263656e746167652063616e6e6f74206578636565642031303060448201526064016106c3565b600f55565b6000546001600160a01b03163314610fcf5760405162461bcd60e51b81526004016106c390611679565b826000036110165760405162461bcd60e51b8152602060048201526014602482015273496e76616c6964204c6f636b20506572696f642160601b60448201526064016106c3565b604080518082018252921515835260208084019283526000948552600890529092209051815460ff19169015151781559051600190910155565b600030868686868660405160200161106d969594939291906116f4565b60405160208183030381529060405280519060200120905095945050505050565b6000806110c389898989601060008f6001600160a01b03166001600160a01b0316815260200190815260200160002054611050565b6040517f19457468657265756d205369676e6564204d6573736167653a0a3332000000006020820152603c8101829052909150600090605c0160408051601f198184030181528282528051602091820120600080855291840180845281905260ff8a169284019290925260608301889052608083018790529092509060019060a0016020604051602081039080840390855afa158015611167573d6000803e3d6000fd5b5050604051601f190151600c546001600160a01b039081169116149c9b505050505050505050505050565b6000546001600160a01b031633146111bc5760405162461bcd60e51b81526004016106c390611679565b6001600160a01b0381166112215760405162461bcd60e51b815260206004820152602660248201527f4f776e61626c653a206e6577206f776e657220697320746865207a65726f206160448201526564647265737360d01b60648201526084016106c3565b61122a8161122d565b50565b60008054600180546001600160a01b03199081166001600160a01b0380851691821790935591851692168217835542600255604051909283917f8be0079c531659141344cd1fd0a4f28419497f9722a3daafe3b4186f6b6457e09190a35050565b61122a816040516024016112a29190611754565b60408051601f198184030181529190526020810180516001600160e01b031663104c13eb60e21b179052611312565b61122a816040516024016112e791815260200190565b60408051601f198184030181529190526020810180516001600160e01b031663f5b1bba960e01b1790525b80516a636f6e736f6c652e6c6f67602083016000808483855afa5050505050565b60006020828403121561134557600080fd5b5035919050565b80356001600160a01b038116811461136357600080fd5b919050565b60006020828403121561137a57600080fd5b6113838261134c565b9392505050565b6000806040838503121561139d57600080fd5b6113a68361134c565b946020939093013593505050565b600080604083850312156113c757600080fd5b50508035926020909101359150565b801515811461122a57600080fd5b634e487b7160e01b600052604160045260246000fd5b600082601f83011261140b57600080fd5b813567ffffffffffffffff80821115611426576114266113e4565b604051601f8301601f19908116603f0116810190828211818310171561144e5761144e6113e4565b8160405283815286602085880101111561146757600080fd5b836020870160208301376000602085830101528094505050505092915050565b803560ff8116811461136357600080fd5b600080600080600080600060e0888a0312156114b357600080fd5b873596506020880135955060408801356114cc816113d6565b9450606088013567ffffffffffffffff8111156114e857600080fd5b6114f48a828b016113fa565b94505061150360808901611487565b925060a0880135915060c0880135905092959891949750929550565b60008060006060848603121561153457600080fd5b833592506020840135611546816113d6565b929592945050506040919091013590565b600080600080600060a0868803121561156f57600080fd5b6115788661134c565b945060208601359350604086013561158f816113d6565b9250606086013567ffffffffffffffff8111156115ab57600080fd5b6115b7888289016113fa565b95989497509295608001359392505050565b600080600080600080600060e0888a0312156115e457600080fd5b6115ed8861134c565b96506020880135955060408801356114cc816113d6565b634e487b7160e01b600052603260045260246000fd5b634e487b7160e01b600052601160045260246000fd5b808201808211156116435761164361161a565b92915050565b818103818111156116435761164361161a565b60006020828403121561166e57600080fd5b8151611383816113d6565b6020808252818101527f4f776e61626c653a2063616c6c6572206973206e6f7420746865206f776e6572604082015260600190565b6000826116cb57634e487b7160e01b600052601260045260246000fd5b500490565b60005b838110156116eb5781810151838201526020016116d3565b50506000910152565b60006bffffffffffffffffffffffff19808960601b168352808860601b1660148401525085602883015284151560f81b6048830152835161173c8160498501602088016116d0565b60499201918201929092526069019695505050505050565b60208152600082518060208401526117738160408501602087016116d0565b601f01601f1916919091016040019291505056fea2646970667358221220a9e59b0a7b4e995f2f0faf01c423d64cf6e9320a87ea7e8c050cb017f1de821064736f6c63430008170033","linkReferences":{}},"methodIdentifiers":{"affiliateCommissions(address)":"b0528f92","bot()":"10814c37","dailyDeposits(uint256)":"32c2ec27","ethTax()":"2a1e8dfa","getCurrentDay()":"3e6968b6","getMessageHash(address,uint256,bool,string,uint256)":"ca0bb071","isValidSignature(address,uint256,bool,string,uint8,bytes32,bytes32)":"cdacf8cb","jokToken()":"1f418dde","lastOwnerDepositDay()":"0d03fab5","maxPercentage()":"35b6003b","nonce(address)":"70ae92d2","oldOwner()":"f487404f","owner()":"8da5cb5b","renounceOwnership()":"715018a6","setEthTax(uint256)":"7841c5df","setJokToken(address)":"4a7e255f","setMEVBot(address)":"6a376065","setMaxPercentage(uint256)":"94ab5382","setStakingSigner(address)":"3606f28e","setValidLockPeriod(uint256,bool,uint256)":"b0985aa9","stake(uint256,uint256)":"7b0472f0","stakers(address)":"9168ae72","stakes(address,uint256)":"584b62a1","stakingSigner()":"66474eed","totalDeposits()":"7d882097","totalStaked()":"817b1cd2","transferOwnership(address)":"f2fde38b","unstake(uint256)":"2e17de78","updateTotalDeposits()":"8320b124","validLockPeriods(uint256)":"ebb2567e","withdraw(uint256,uint256,bool,string,uint8,bytes32,bytes32)":"8e682105"},"id":20}